:020000040800F2
:1000000000000320BDBC00080DBD00080DBD0008A8
:100010000DBD00080DBD00080DBD0008000000006A
:100020000000000000000000000000000DBD0008FE
:100030000DBD0008000000000DBD00080DB800084F
:100040000DBD000819B800080DBD00080DBD000861
:1000500021B8000829B800080DBD00080DBD000832
:100060000DBD00080DBD00080DBD00080DBD000848
:100070000DBD00080DBD00080DBD00080DBD000838
:100080000DBD00080DBD00080DBD00080DBD000828
:100090000DBD00080DBD00080DBD00080DBD000818
:1000A0000DBD00080DBD00080DBD00080DBD000808
:1000B0002DB800083DB800084DB800085DB800082C
:1000C0006DB800087DB800088DB800080DBD0008A7
:1000D0000DBD00080DBD00080DBD00089DB800084D
:1000E000ADB800080DBD00080DBD00080DBD00082D
:1000F0000DBD00080DBD00080DBD00080DBD0008B8
:100100000DBD00080DBD00080DBD00080DBD0008A7
:100110000DBD00080DBD00080DBD00080DBD000897
:100120000DBD00080DBD00080DBD00080DBD000887
:100130000DBD0008B9B80008C9B800080DBD000819
:100140000DBD00080DBD00080DBD00080DBD000867
:100150000DBD00080DBD00080DBD00080DBD000857
:10016000D9B80008E9B800080DBD00080DBD0008A9
:100170000DBD00080DBD00080DBD00080000000009
:100180000DBD0008F9B800080DBD00080DBD000840
:100190000DBD00080DBD00080DBD00080DBD000817
:0C01A0000DBD00080DBD00080DBD0008DD
:1001B00010B5054C237833B9044B13B10448AFF3A1
:1001C00000800123237010BD7C000020000000008F
:1001D00054CC000808B5034B1BB103490348AFF3E7
:1001E000008008BD000000008000002054CC000802
:1001F00053B94AB9002908BF00281CBF4FF0FF318E
:100200004FF0FF3000F072B9ADF1080C6DE904CE8B
:1002100000F006F8DDF804E0DDE9022304B07047E1
:100220002DE9F047089E04468846002B4BD18A42B0
:10023000154667D9B2FA82F24AB1C2F1200701FA33
:1002400002F320FA07F7954047EA030894404FEA83
:10025000154E230CB8FBFEF71FFA85FC0EFB178822
:1002600043EA084307FB0CF1994209D9EB1807F15F
:10027000FF3080F01B81994240F21881023F2B44ED
:100280005B1AA4B2B3FBFEF00EFB103344EA034446
:1002900000FB0CFCA44509D92C1900F1FF3380F0B8
:1002A0000781A44540F2048102382C4440EA07400B
:1002B000A4EB0C0400271EB1D4400023C6E9004380
:1002C0003946BDE8F0878B4209D9002E00F0EB805B
:1002D0000027C6E9000138463946BDE8F087B3FA81
:1002E00083F7002F47D18B4202D3824200F2FA807B
:1002F000841A61EB030301209846002EE0D0C6E982
:100300000048DDE702B9FFDEB2FA82F2002A40F0CF
:100310008F80491B4FEA154E1FFA85F80127B1FB64
:10032000FEFC230C0EFB1C1143EA014308FB0CF1FD
:10033000994207D9EB180CF1FF3002D2994200F232
:10034000CD808446591AA3B2B1FBFEF00EFB101407
:1003500043EA044408FB00F8A04507D92C1900F132
:10036000FF3302D2A04500F2B6801846A4EB080481
:1003700040EA0C409FE7C7F1200CBB4022FA0CFE7C
:100380004EEA030E01FA07F420FA0CF521FA0CF3F9
:100390004FEA1E482543B3FBF8F92C0C08FB193330
:1003A0001FFA8EFA44EA034309FB0AF49C4202FA5C
:1003B00007F200FA07F10BD91EEB030309F1FF3036
:1003C00080F087809C4240F28480A9F10209734446
:1003D0001B1BADB2B3FBF8F008FB103345EA034436
:1003E00000FB0AFAA24508D91EEB040400F1FF3312
:1003F0006BD2A24569D90238744440EA0940A0FB97
:100400000289A4EB0A044C45C2464B4654D351D052
:10041000002E69D0B1EB0A0564EB030404FA0CFC6E
:10042000FD40FC404CEA0505C6E90054002747E7BB
:10043000C2F1200320FA03F7954001FA02F021FAF5
:1004400003F34FEA154E3843010CB3FBFEF71FFAD6
:1004500085F80EFB173341EA034107FB08F38B4293
:1004600004FA02F407D9691807F1FF3C2FD28B4236
:100470002DD9023F2944CB1A81B2B3FBFEF00EFB0B
:10048000103341EA034100FB08F38B4207D9691896
:1004900000F1FF3C17D28B4215D902382944C91A02
:1004A00040EA07473BE73746304609E70746E7E6B5
:1004B0001846FBE64145ABD2B8EB020A69EB0E02E7
:1004C00001381346A4E76046E9E7184695E7674612
:1004D000D1E781467CE702382C4447E7ACF1020CB7
:1004E0002B442FE7384608E73746E9E6704700BF58
:1004F00001F0FF01102A2BDB10F0070F08D010F8D5
:10050000013B013A8B422DD010F0070F42B3F6D1D8
:10051000F0B441EA012141EA014122F007047FF0F1
:1005200000070023F0E80256083C85EA010586EA48
:10053000010685FA47F5A3FA87F586FA47F6A5FA84
:1005400087F68EB9EED1F0BC01F0FF0102F0070290
:1005500032B110F8013B013A83EA010313B1F8D13B
:100560000020704701387047002D06BF354603381C
:10057000073815F0010F07D1013015F4807F02BF55
:10058000013015F4C03F0130F0BC0138704700BFA6
:1005900010B504460E4B18784FF47A73B3FBF0F3A2
:1005A0000C4A1068B0FBF3F000F0D0F868B90F2CDB
:1005B00001D901200AE0002221464FF0FF3000F06F
:1005C00069F8034B5C60002000E0012010BD00BF13
:1005D000000000201400002008B50B4B1A6842F4FC
:1005E00000721A601A6842F480621A601A6842F453
:1005F00080721A60032000F02FF80020FFF7C8FF78
:100600000BF09AF8002008BD003C0240034A116834
:10061000034B1B780B441360704700BF200200207F
:1006200000000020014B1868704700BF2002002026
:1006300038B50446FFF7F6FF0546B4F1FF3F02D098
:10064000044B1B781C44FFF7EDFF401BA042FAD37C
:1006500038BD00BF0000002010B50446C31E042BA7
:100660000FD80A4AD36823F4E0631B041B0C24024E
:1006700004F4E064234343F0BF6343F40033D360E6
:1006800010BDA22102480BF055F8EAE700ED00E0AA
:10069000ACCD000870B505460C4616460F2A25D885
:1006A0000F2C28D81B4BDB68C3F30223C3F10702CE
:1006B000042A28BF0422191D062921D9033B4FF023
:1006C000FF3101FA02F224EA02049C4001FA03F32A
:1006D00026EA03063443002D14DB2401E4B205F1BD
:1006E000604505F5614585F8004370BDBA210A48AB
:1006F0000BF020F8D4E7BB2107480BF01BF8D1E73B
:100700000023DCE705F00F052401E4B2034B5C5540
:10071000EBE700BF00ED00E0ACCD000814ED00E019
:1007200010B5041E08DB04F01F0264090123934086
:10073000044A42F8243010BDCE2103480AF0FAFFE3
:10074000F1E700BF00E100E0ACCD00080138B0F1F6
:10075000807F0AD2064B5860064AF02182F82310A7
:100760000020986007221A6070470120704700BF80
:1007700010E000E000ED00E010B50446042800D0D1
:1007800038B9042C0BD0094A136823F00403136012
:1007900010BD40F2D91106480AF0CCFFF1E7034A38
:1007A000136843F004031360F2E700BF10E000E0B9
:1007B000ACCD0008704708B5FFF7FCFF08BD90F806
:1007C0003530DBB2022B03D0802343650120704714
:1007D000052380F835300268136823F001031360A5
:1007E00000207047016841F218028B5843F400530F
:1007F0008B507047016841F218028B5843F0020396
:100800008B50704782B0084B1B68084AA2FB032339
:100810005B0A00FB03F0019000BF019B5A1E01928E
:10082000002BF9D102B0704714000020D34D6210A4
:1008300010B582B00446002301930268136843F0A8
:100840000803136003681B6801930120FFF7DAFFB8
:100850002368019A1A6002B010BD10B582B0044638
:10086000002301930268136843F0040313600368D4
:100870001B6801930120FFF7C5FF2368019A1A60E6
:1008800002B010BD30B583B0054600230193026865
:1008900041F21804135943F48013135103681B5990
:1008A00001930120FFF7AEFF2B68019A1A5103B0A4
:1008B00030BD000038B514460D4651B1082908D0A6
:1008C000102906D0182904D040F24F710A480AF0C6
:1008D00031FF6279237943EA0223084AAB50E27878
:1008E000A3781B0443EA0263627843EA0223227876
:1008F0001343034AAB5038BDE8CD000840800240A6
:100900004480024070B59EB0044629B14FF40063A4
:10091000C3604FF480438360E369002B6AD14FF4D6
:100920008063079321680B68394A1A40A368E0681E
:1009300003430798034343F4007313430B60236896
:100940001D680120FFF774FE23681D6023684022A4
:100950005A6023685D680120FFF76AFE23685D60C6
:10096000236800259D602368DD602268936923F079
:10097000BE031B041B0C43F08003936123689E6934
:100980000120FFF755FE23689E612368DD6123681F
:10099000DD690120FFF74CFE2368DD61226841F22A
:1009A000180551591B4B0B4043F0087343F00403E7
:1009B000535123685E590120FFF73AFE23685E51C8
:1009C000236803F58053144A1A60236803F58053A3
:1009D0001D680120FFF72CFE236803F580531D607E
:1009E000A369012B09D0626900212046FFF762FF4D
:1009F0001EB070BD0023079394E7216841F21C02EA
:100A00008B5843F4803343F040038B50EBE700BF37
:100A10000F8120FF233FDEF88020C102F0B490F860
:100A20004540012C31D0012480F84540022480F853
:100A30004440C162002401E0F96001349C4217D2B5
:100A400065014F194FF480164E5140F2F45606FBE3
:100A50000426BE60C6691EB94E5946F440064E5182
:100A60005D1EA542E8D9651C01EB4515FD60E4E774
:100A7000026841F21003D150012380F84430002372
:100A800080F845301846F0BC70470220FBE7F0B410
:100A900090F84540012C2ED0012480F845400224D6
:100AA00080F844408162002401E0E96001349C4206
:100AB00014D266018D194FF000478F5144F2F4565D
:100AC0006E6040F2F45606FB0426AE605E1EA6423F
:100AD000EBD9661C01EB4616EE60E7E7026841F2CF
:100AE0000C03D150012380F84430002380F84530B6
:100AF0001846F0BC70470220FBE7000090F8453034
:100B0000012B00F08580012380F84530022380F816
:100B10004430B1B1C36A1A68002A1ADB30B440F21B
:100B2000F45291421DD93B4AA2FB0142920A40F283
:100B3000F45404FB121404B10132012A11D0002331
:100B400047E0012380F84430002280F84520184611
:100B50007047122380F84430002380F8453001208C
:100B600070471A6842F040521A60C36AC1F30C0120
:100B70005960C26A136843F000431360C36ADB68BC
:100B8000C362036841F214029A5812F0040F08D0AD
:100B900041F2140204219950026841F20403002139
:100BA000D150012380F84430002380F845301846A6
:100BB00030BC7047C56A2C6844F080542C6011E04A
:100BC000C56A2C6844F000442C60C46AE468C462BE
:100BD00001339A42D5D9C56A2C6824F040542C6060
:100BE000002BE7D0C46A40F2F4556560541E9C4265
:100BF000E6D1C56A2C6844F000542C60064C04FB16
:100C0000021404F2F454C56AC4F30C046C60D7E710
:100C1000022070470BB002AC0CFAFFFF7047704720
:100C2000704710B50446036841F214029A5812F056
:100C3000400F11D141F214029B5813F0010F19D14A
:100C4000226841F214034FF48031D1502268D35806
:100C500013F4004F1BD110BDFFF7E1FF226841F2F2
:100C600014034021D150012384F84430002384F838
:100C70004530E5E7FFF7D2FF2168012341F2140276
:100C80008B5084F84430002384F84530D8E7204660
:100C9000FFF7C6FF226841F214034FF40041D15020
:100CA000012384F84430002384F84530D3E7000062
:100CB000F8B506460D461746038A202B25D896F828
:100CC0004430DBB2822B37D0822386F8443032683E
:100CD000136903F01C03348AE402A4B22343AC0179
:100CE00004F4F8641C4344F001041461FFF79AFC17
:100CF000054614F0010F16D0FFF794FC401BB0F529
:100D0000803F08D233681C69F3E74FF485610B48D4
:100D10000AF010FDD3E7012386F84430002386F85B
:100D20004530032007E033685B699BB23B600123D9
:100D300086F844300020F8BD0220FCE7E8CD00082A
:100D4000F8B506460D461746038A202B28D896F894
:100D50004430DBB2422B36D0422386F8443032682E
:100D6000136903F01C03348AE402A4B22343AC01E8
:100D700004F4F8641C4344F00304BFB257613368C1
:100D80001C61FFF74FFC054614F0010F16D0FFF76A
:100D900049FC401BB0F5803F08D233681C69F3E77B
:100DA0004FF48E6109480AF0C5FCD0E7012386F8AC
:100DB0004430002386F84530032003E0012386F801
:100DC00044300020F8BD0220FCE700BFE8CD000859
:100DD00070B582B000230193002800F049810446D9
:100DE0004368012B43D8A369012B45D8E369012B44
:100DF00047D8236A13B1B3F5000F47D194F84430B4
:100E0000002B48D0002300939A4B5A6C42F4804246
:100E10005A645B6C03F480430093009B964B5A68C2
:100E200022F400025A605A68216A0A435A60236811
:100E300003F580531A6842F001021A60FFF7F2FBD3
:100E40000546236803F58052126812F0010F28D07E
:100E5000FFF7E8FB401BB0F5FA7FF2D9032584F8D1
:100E60004450002384F84530284602B070BDC021AC
:100E700082480AF05FFCB6E7C12180480AF05AFCBC
:100E8000B4E7C2217D480AF055FCB2E7C3217B4894
:100E90000AF050FCB2E784F8453020460AF036F9F3
:100EA000B0E71D6925F01C0501F028FF744B0344D1
:100EB000744A934239D845F0080523681D614FF400
:100EC000004200212046FFF73BFF0546002844D1A1
:100ED000FF20FFF7ADFB6368002B46D1A3681BB171
:100EE000B3F5804F40F0B080E368B3F5006F02D0F7
:100EF000002B40F0AF80E268C2F3CF02A368C3F3D7
:100F00004F031A4300212046FFF71AFF002840F044
:100F1000A78040F6FF70FFF78BFB00212046FFF70C
:100F2000F1FC012384F844309EE7574B0344574AB1
:100F3000934202D845F00C05BFE7554B0344554A90
:100F40009342BAD9544B0344544A934202D845F0D1
:100F50000405B2E745F01005AFE701212046FFF791
:100F6000D1FC012584F844507EE7FFF75BFB064681
:100F700001AA01212046FFF79BFEFFF753FB801BD0
:100F800041F28833984230D8019B13F0040FEFD020
:100F90004FF4805200212046FFF7D2FE88BBFFF7B6
:100FA00041FB064601AA01212046FFF781FEFFF71B
:100FB00039FB801B41F2883398422AD8019B13F0F9
:100FC000200FEFD001AA10212046FFF771FE60BB71
:100FD000019B13F0040F30D04FF40062E26013F075
:100FE000020F2DD00023A36097E701212046FFF7D1
:100FF00089FC012384F84430002384F8453003251C
:1010000032E701212046FFF77DFC012584F844509A
:101010002AE701212046FFF775FC012384F84430BC
:10102000002384F8453003251EE701212046FFF701
:1010300069FC012584F8445016E70022E260CEE7FF
:101040004FF48043A36068E74FF4CD710B480AF07A
:1010500071FB49E740F29B1108480AF06BFB4AE735
:1010600001212046FFF74EFC012584F84450FBE6A1
:101070000125F9E60038024000380140E8CD0008BB
:1010800000D3CEFEBFE1E40040F1E9FD3F787D01F1
:1010900000796CFCFF596202001F0AFA7FF0FA0225
:1010A00038B590F84530012B1AD00446012580F858
:1010B0004550022380F84430FFF7BAFB2046FFF783
:1010C000CCFB2046FFF7DEFB2046FFF78BFB2046DC
:1010D000FFF790FB84F84450002084F8450038BDA9
:1010E0000220FCE7274BDB6813F0100F07D0264ADD
:1010F000D36943F01003D361224B1022DA60214BF5
:10110000DB6813F0200F07D01F4AD36943F00803B0
:10111000D3611C4B2022DA601A4BDB6813F0400FBE
:1011200007D0194AD36943F00403D361154B402219
:10113000DA60144BDB6813F0800F07D0124AD369D2
:1011400043F00203D3610F4B8022DA600D4BDB6862
:1011500013F4807F08D00C4AD36943F00103D361B4
:10116000084B4FF48072DA60064BDB6813F0020F15
:1011700007D0054AD36943F02003D361014B022213
:10118000DA607047003C024024020020704770473C
:1011900010B53B4BDB6813F4F97F13D0394B1B7848
:1011A000DBB2012B3DD0374B1B78DBB2022B3ED09C
:1011B000344B5C69FFF796FF2046FFF7E8FF314BA1
:1011C00000221A702E4BDB6813F0010F13D02C4B4A
:1011D0000122DA602B4B1B78DBB293422AD0294BD9
:1011E0001B78DBB2022B43D0264B5869FFF7CEFFAA
:1011F000244B00221A70234B1B788BB9204B1A69A1
:1012000022F4004222F0FF021A611A6922F0807271
:101210001A611A6922F000721A611A4B00221A76BA
:1012200010BD184BDC684FF0FF32DA60C2E7154B97
:101230001C69BFE7134B5A68013A5A605B685BB19F
:10124000104CE068FFF7A2FFE3680133E360E06859
:10125000217A00F019F8CEE70A4B4FF0FF34DC603A
:1012600000221A7000F050F82046FFF78FFFC2E707
:1012700000F04AF8034B1869FFF788FFB8E700BF92
:10128000003C02402402002038B504460D461728D1
:1012900009D8032D0DD8ADB1012D2ED0022D0ED0C1
:1012A0004FF440700FE040F25F2115480AF042FA17
:1012B000EFE74FF4187112480AF03CFAEBE74FF4ED
:1012C000007000E000200B2C00D904340D4B19698C
:1012D00021F4407119611A6902431A611A6922F0F6
:1012E000F8021A61186940EAC40040F0020018616F
:1012F0001A6942F480321A6138BD4FF48070E2E717
:1013000020CE0008003C0240164B1B6813F4007FFF
:1013100010D0144B1A6822F400721A601A6842F452
:1013200000621A601A6822F400621A601A6842F4B5
:1013300000721A600B4B1B6813F4806F10D0094BBE
:101340001A6822F480621A601A6842F480521A60A5
:101350001A6822F480521A601A6842F480621A6095
:10136000704700BF003C02402DE9F04782B0804644
:101370000E46BD4B98422BD003F58063984227D090
:1013800003F58063984223D003F5806398421FD011
:1013900003F5806398421BD003F58063984217D011
:1013A00003F58063984213D003F5806398420FD011
:1013B00003F5806398420BD003F58063984207D011
:1013C00003F58063984203D0C321A8480AF0B2F91C
:1013D00033689AB212B11B0C1B041BB1C421A34881
:1013E0000AF0A8F97368012B1ED9112B1CD0022B0F
:1013F0001AD0122B18D09E4A934215D002F58012B3
:10140000934211D002F5801293420DD0A2F5F8124A
:10141000934209D002F58012934205D002F5801262
:10142000934201D0032B04D1B368022B06D80024C9
:101430004AE0C5218D480AF07DF9F5E7C6218B48C1
:101440000AF078F9F3E7D72188480AF073F969E0E0
:10145000EA2186480AF06EF994E0092300E00023AF
:101460008B4003430232834941F82230824B1A6891
:10147000FB4303EA0201706810F4803F01D047EAA1
:1014800002017D4A1160526803EA0201706810F49B
:10149000003F01D047EA0201774A5160926803EAAF
:1014A0000201706810F4801F01D047EA0201724AFD
:1014B0009160D2681340716811F4001F01D047EAAF
:1014C00002036D4AD36001340F2C00F2DF80012546
:1014D000A54037682F40BD42F5D17368022B01D07B
:1014E000122B2FD13369EBB1092B1BD0012B19D053
:1014F000022B17D0032B15D0042B13D0052B11D0A2
:10150000062B0FD0072B0DD0082B0BD00A2B09D0A0
:101510000B2B07D00C2B05D00D2B03D00F2B01D09C
:101520000E2B90D1E208083258F8220004F007038D
:1015300099000F238B4020EA030033698B4003435B
:1015400048F82230D8F800204FEA440A4FF0030947
:1015500009FA0AF96FEA090909EA0202736803F055
:10156000030303FA0AF31343C8F8003073685A1EE2
:10157000012A03D9112B01D0122B18D1F368032BA8
:101580003FF666AFD8F8082009EA0202F36803FACA
:101590000AF31343C8F80830D8F8042022EA0502F9
:1015A0007368C3F30015A5401543C8F80450D8F874
:1015B0000C3009EA0309B36803FA0AF343EA0903A2
:1015C000C8F80C30736813F0805F3FF47CAF0023E1
:1015D00001932A4B5A6C42F480425A645B6C03F4C8
:1015E00080430193019BA208911C224B53F82100D8
:1015F00004F0030399000F238B4020EA03001A4BE9
:1016000098453FF42CAF03F58063984522D003F54D
:101610008063984520D003F5806398451ED003F57C
:10162000806398451CD003F5806398451AD003F574
:101630008063984524D003F58063984522D003F554
:101640008063984520D003F5806398453FF405AF4B
:101650000A2305E7012303E7022301E70323FFE64B
:101660000423FDE60523FBE60000024060CE0008EF
:101670000000111000380140003C014000380240D9
:101680000623EDE60723EBE60823E9E602B0BDE812
:10169000F08700BF70B5064615460C4629B1012DEE
:1016A00009D875B92404B46170BD40F2AF11064881
:1016B0000AF040F8F3E74FF4D87103480AF03AF81B
:1016C000EFE7B461F0E700BF60CE000870470000AC
:1016D00008B5054B5B69034200D108BD024B586158
:1016E000FFF7F4FFF9E700BF003C014090F83E30FF
:1016F000DBB2402B13D00369B3F5804F1ED0036DCE
:10170000002B2DD0036D012B33D1436CC3F3C813D1
:10171000026803F0060343F0F103136129E0036D4F
:101720002BB9436C026803F0FE03136121E0436CA4
:10173000026843F00103DBB213611AE090F83D3018
:10174000DBB2212B06D0436C026843F00103DBB20D
:1017500013610EE0436C026803F0FE03136108E0BE
:10176000436CC3F3C813026803F0060343F0F003AD
:10177000136100207047436C0268DBB213610020E4
:10178000704710B48BB090F83E30DAB2C16A046B87
:1017900090F83D30DBB2222B0CD000230993036874
:1017A0005A6909929B690993099B00200BB05DF867
:1017B000044B7047036D0BB9402A17D0036D1BB95A
:1017C0000369B3F5404F19D0438D9BB2002B25D14F
:1017D000029303685A6902929A690292029A1A68FD
:1017E00042F400721A6000230365DEE70093036889
:1017F0005A6900929B690093009BD6E700230193EE
:1018000003685A6901929A690192019A1A6842F42E
:1018100080721A60036D01330365C6E7438D9BB286
:10182000012B1AD0438D9BB2022B6BD00268136838
:1018300043F48063136003685A6812F4006F03D0A6
:101840005A6842F480525A600023089303685A6928
:1018500008929B690893089BC5E711F5803F16D055
:1018600004293DD008293BD0122C39D0C36A022B61
:1018700030D00268136823F480631360002305935B
:1018800003685A6905929B690593059BABE702685B
:10189000136823F48063136003685A6812F4006FBE
:1018A0000CD01A6822F480621A6000230393036844
:1018B0005A6903929B690393039B94E70022049265
:1018C0005A6904929A690492049A1A6842F400725E
:1018D0001A6088E70268136843F480631360CDE7F9
:1018E0000268136823F4806313600023069303687F
:1018F0005A6906929A690692069A1A6842F4007228
:101900001A6070E7C36A022B1BD00268136823F4C5
:10191000806313600268136843F400631360036814
:101920005A6812F4006F03D05A6842F480525A6029
:101930000023079303685A6907929B690793079BE3
:1019400051E70268136843F480631360E7E7438D4F
:101950009BB24BB1436A5A1C426202681B78136106
:10196000438D013B9BB2438500207047438D9BB262
:101970004BB103681A69436A591C41621A70438D5E
:10198000013B9BB24385002070470000002800F017
:10199000EB8010B504460368744A93420CD002F5FC
:1019A0008062934208D002F58062934204D04FF4E3
:1019B000B7716F4809F0BEFE6368013B6D4A934200
:1019C00067D8A36813B1B3F5804F68D1E36823F4F7
:1019D0007F7323F00303002B67D12369B3F5804F96
:1019E00002D0B3F5404F66D16369012B69D8A36972
:1019F00033F0FE036BD1E3690BB1402B6DD1236A49
:101A00000BB1802B6FD194F83D30002B71D0242383
:101A100084F83D302268136823F00103136001F05D
:101A200073F9554BA3FB00239B0C2268536061683C
:101A3000524A914263D801332268136263684F4A65
:101A4000934266D85B00B0FBF3F0C0F30B03032BAB
:101A500000D804202368D861E369216A22680B4317
:101A600013602369E16822680B4393606369A1698D
:101A700022680B43D3602268136843F001031360AC
:101A800000202064202384F83D30206384F83E0049
:101A900010BD40F26F11364809F04CFE91E74FF44B
:101AA000B871334809F046FE90E740F271113048B2
:101AB00009F040FE91E74FF4B9712D4809F03AFE64
:101AC00092E740F273112A4809F034FE8FE74FF491
:101AD000BA71274809F02EFE8DE740F275112448AF
:101AE00009F028FE8BE74FF4BB71214809F022FE74
:101AF00089E784F83C30204609F0BEFC87E74FF4C4
:101B0000967202FB03F31E4AA2FB03239B090133D7
:101B100092E7A16889B903EB4302B0FBF2F2C2F38A
:101B20000B02B2FA82F25209E2B991B903EB430314
:101B3000B0FBF3F040F400408CE703EB830202EBD0
:101B40008202B0FBF2F2C2F30B02B2FA82F2520945
:101B5000EAE703EB830303EB8303B0FBF3F040F40A
:101B6000404077E7012075E70120704700540040AE
:101B70009CCE00087F1A060083DE1B43A08601006E
:101B8000D34D621070477047704708B590F83D30EC
:101B9000DAB2438D9BB273B1436A591C416201684A
:101BA0001B780B61438D013B9BB24385438D9BB2F8
:101BB0000BB9292A01D0002008BD0268536823F41C
:101BC0008063536021230363282380F83D30FFF7AF
:101BD000DBFFF0E7704790F83D30DAB2438D9BB2FF
:101BE000F3B110B503681969436A5C1C446219704B
:101BF000438D013B9BB24385438D9BB20BB92A2A8F
:101C000001D0002010BD0268536823F48063536044
:101C100022230363282380F83D30FFF7DBFFF0E742
:101C200000207047704708B503689A6912F0040FE6
:101C300009D000219B6913F0800F06D0028BFFF7BB
:101C4000F1FF002008BD0121F4E78289F7E7704722
:101C500008B590F83D30DBB2C26A042A01D0082AE8
:101C600001D1282B07D0212B1FD003686FF480628D
:101C70005A61002008BD1A4BC3620268536823F4FE
:101C8000E063536003686FF480625A61026813680E
:101C900023F48063136000230363202280F83D2037
:101CA00080F83E30FFF7D3FFE3E70D4BC3622123FB
:101CB0000363202380F83D30002380F83E30026823
:101CC000536823F4E063536003686FF480625A61E1
:101CD0000268136823F480631360FFF755FFC8E7B9
:101CE0000000FFFF704710B590F83D30DBB290F870
:101CF0003E20D2B2C46A018D09B9212B05D0212B17
:101D00003CD0402A38D0002010BD042C04D0082C30
:101D100002D014F5803F19D10268536823F4E063C0
:101D200053600268136843F4007313600023036375
:101D3000202380F83D3090F83E30DBB2402B15D0A8
:101D4000002380F83E30FFF71DFFDCE70268536890
:101D500023F4E063536011230363002380F83E30D3
:101D6000202380F83D30FFF70DFFCCE7002380F8FB
:101D70003E30FFF7B7FFC6E7222BC4D1438D9BB29D
:101D80007BB190F83E30DBB2402B10D0436A5A1C36
:101D9000426202681B781361438D013B9BB243850D
:101DA000B1E70268536823F480635360ABE7036DC7
:101DB0009BB9C36C012B08D0836CC3F30723026863
:101DC0001361036D013303659DE7836C0268DBB229
:101DD0001361036D0233036595E7036D012B17D083
:101DE000036D022B8FD190F83D30DBB2222B17D040
:101DF00090F83D30DBB2212B85D1436A5A1C4262F8
:101E000002681B781361438D013B9BB243857AE7DF
:101E1000836C0268DBB21361036D0133036572E703
:101E20000268136843F4807313606CE708B5C26AF4
:101E300090F83D30DBB2212B01D0002008BD438D4E
:101E40009BB203BB042A04D0082A02D012F5803FBB
:101E500024D10268536823F4E06353600268136876
:101E600043F40073136000230363202380F83D30A4
:101E700090F83E30DBB2402B20D0002380F83E307B
:101E8000FFF780FED9E7436A5A1C426202681B785A
:101E90001361438D013B9BB24385CEE702685368D3
:101EA00023F4E063536011230363002380F83E3082
:101EB000202380F83D30FFF765FEBEE7002380F861
:101EC0003E30FFF70FFFB8E7704708B590F83D3098
:101ED000DBB2222B01D0002008BD438D9BB2032B27
:101EE00013D903681A69436A591C41621A70438DF9
:101EF000013B9BB24385438D9BB2032BEBD1026820
:101F0000536823F480635360E5E7012BE3D802684C
:101F1000136823F4806313600268536823F4E0635A
:101F2000536003681A69436A591C41621A70438DF1
:101F3000013B9BB24385202380F83D30002303639F
:101F400090F83E30DBB2402B05D0002380F83E30C5
:101F5000FFF719FEBFE7002380F83E30FFF7B4FF1C
:101F6000B9E708B5C26A438D9BB2042B13D0438DE9
:101F70009BB2032B1FD0438D9BB2022B30D0036842
:101F80001A69436A591C41621A70438D013B9BB226
:101F90004385002008BD0268536823F480635360C2
:101FA00003681A69436A591C41621A70438D013BE8
:101FB0009BB24385EDE70268536823F48063536066
:101FC0000268136823F48063136003681A69436A24
:101FD000591C41621A70438D013B9BB24385D8E77F
:101FE000013A012A2DD90268136843F40073136083
:101FF00003681A69436A591C41621A70438D013B98
:102000009BB2438503681A69436A591C41621A707E
:10201000438D013B9BB243850268536823F44073B0
:102020005360202380F83D300023036390F83E3056
:10203000DBB2402B10D0002380F83E30FFF7A3FD29
:10204000A7E70268136823F48063136002681368CB
:1020500043F480731360CBE7002380F83E30FFF732
:1020600033FF96E77047704710B5044690F83D304F
:10207000293B012B37D990F83D30DBB2602B07D0DC
:1020800003685B6813F4006F02D1202380F83D30B1
:102090000023236384F83E302268136823F400632E
:1020A000136023685A6812F4006F3FD05A6822F414
:1020B00000625A60626B92F83530DBB2012B18D0A7
:1020C0003A4B1365606BFEF77AFB00283FD022681D
:1020D000136823F001031360202384F83D30606B04
:1020E000036D984733E000230363282380F83D30D5
:1020F000D2E7A36B2D4A1A65A06BFEF760FB30B3E5
:1021000023685A6912F0400F04D01A69636A591C97
:1021100061621A702268136823F0010313602023A0
:1021200084F83D30A06B036D984710E094F83D2093
:10213000D2B2602A11D05A6912F0400F04D01A6945
:10214000636A591C61621A702046FFF78BFF94F88E
:102150003D30DBB2282B17D010BD202284F83D2063
:10216000002222645A6912F0400F04D01A69636A8F
:10217000591C61621A702268136823F0010313600E
:102180002046FFF770FFE2E7236C13F0040FE3D063
:10219000074BE36200232363202284F83D2084F868
:1021A0003E302046FFF753FDD6E700BFF12400087C
:1021B0000000FFFF10B582B090F83D30DBB201683F
:1021C0004A6822F4E0624A60002201920268516982
:1021D0000191116841F001011160019A01680A68DA
:1021E00022F480620A6001684A6812F4006F14D019
:1021F00090F83D20D2B2222A0AD090F83D20D2B2E7
:102200002A2A05D0426B1268526892B2428504E0D5
:10221000826B1268526892B24285428D92B2F2B1DC
:102220004A6912F0040F08D00969426A541C4462DA
:102230001170428D013A92B242850268516911F0E3
:10224000400F08D01169426A541C44621170428DDB
:10225000013A92B24285026C42F004020264026CBE
:10226000A2B9282B15D02A2B13D0292B11D0026B01
:10227000222A01D0222B17D100230363202280F8C9
:102280003D2080F83E30FFF7A5FC0DE0FFF7ECFEA7
:102290000AE0074BC36200230363202280F83D203D
:1022A00080F83E30FFF7D3FC002002B010BD00BF25
:1022B0000000FFFFF8B5054603689F695C695E682A
:1022C00090F83E30DBB2102B25D0402B23D04C4B66
:1022D000234013B116F4007F6ED14A4B234013B153
:1022E00016F4007F6BD1484B3B40002B6FD0474B1F
:1022F000234033B116F4806F03D0454B2340002BAD
:1023000061D0434B234053B316F4007F27D02846B7
:10231000FFF71DFB23E014F0011F02D016F4007F2D
:102320001ED13C4B234013B116F4007F1CD1344B1B
:10233000234013B116F4007F1AD1334B3B401BB33B
:10234000324B23402BB116F4806F02D0304B234028
:1023500093B12F4B234013B116F4007F10D1F8BD79
:102360002846FFF7C3F9E8E72846FFF704FAE4E751
:102370002846FFF706FAE0E72846FFF7B4FCEEE749
:102380002846FFF753FDEAE7234B23402BB116F411
:10239000806F02D01E4B234053B11D4B2340002BB6
:1023A000DDD016F4007FDAD02846FFF7DAFDD6E755
:1023B0002846FFF78AFDD2E7FFF735FCCFE728462E
:1023C000FFF7F8FECBE72846FFF7DFFBC7E7124B26
:1023D00023402BB116F4806F02D00D4B234053B134
:1023E0000B4B2340002BBAD016F4007FB7D0284601
:1023F000FFF7BCFAB3E72846FFF7EDFBAFE700BFF6
:102400000200010010000100040010008000010023
:1024100004000100080001004000010070B50446FE
:1024200003685D695E68314A154209D016F4807F01
:1024300006D0026C42F0010202646FF480725A61AD
:1024400015F4813F0AD016F4807F07D0236C43F047
:102450000203236423686FF400725A6115F4823F0B
:102460001AD016F4807F17D094F83E30DBB2628D1C
:1024700091B294F83D20D2B2206B202B1DD0236C5A
:1024800043F00403236494F83E30DBB2102B22D0D7
:1024900023686FF480625A6115F4843F0AD016F401
:1024A000807F07D0236C43F00803236423686FF414
:1024B00000625A61236CA3B970BD0029DFD1212AC3
:1024C00005D0292A03D0282AD9D12128D7D12046BE
:1024D000FFF7BEFBE0E72268136843F40073136064
:1024E000D6E72046FFF7C0FDE6E700BF0001010088
:1024F00008B5806B0268136823F4806313600023BF
:102500004385426B1365826B136590F83D30DBB2F7
:10251000602B0DD0202380F83D30002380F83E3022
:102520000268136823F001031360FFF79BFD08BDE9
:10253000202380F83D30002380F83E300364026899
:10254000136823F001031360FFF78DFDEFE7704779
:1025500008B5064B5B6913F4803F00D108BDFFF757
:10256000F6FF024B4FF480325A61F7E7003C01401E
:10257000002800F03C8270B582B0044603680F2B3F
:1025800039D8236813F0010F4DD063682BB1B3F530
:10259000803F02D0B3F5A02F32D1A54B9B6803F04A
:1025A0000C03042B36D0A24B9B6803F00C03082BC2
:1025B0002BD06368B3F5803F5FD0B3F5A02F62D016
:1025C0009B4B1A6822F480321A601A6822F4802227
:1025D0001A606368002B60D0FEF724F80546944B20
:1025E0001B6813F4003F1ED1FEF71CF8401B642843
:1025F000F5D9032000E2F8218E4809F09BF8C0E7E6
:10260000FD218C4809F096F8C7E7894B5B6813F405
:10261000800FCED0864B1B6813F4003F03D0636855
:10262000002B00F0E681236813F0020F67D0E36807
:10263000012B41D823691F2B44D87D4B9B6813F095
:102640000C0F4AD07A4B9B6803F00C03082B3FD049
:10265000E368002B77D0784B01221A60FDF7E2FF88
:102660000546734B1B6813F0020F63D1FDF7DAFFC9
:10267000401B0228F5D90320BEE16D4A136843F4DC
:1026800080331360A5E76A4B1A6842F480221A600F
:102690001A6842F480321A609BE7FDF7C3FF0546D3
:1026A000634B1B6813F4003FBDD0FDF7BBFF401B1D
:1026B0006428F5D903209FE140F22F115D4809F00D
:1026C00039F8B7E74FF498715A4809F033F8B4E78E
:1026D000574B5B6813F4800FBAD1554B1B6813F04E
:1026E000020F04D0E368012B01D0012084E1504A9D
:1026F000136823F0F803216943EAC10313602368D8
:1027000013F0080F49D06369012B2ED8636993B386
:102710004A4B01221A60FDF785FF0546444B5B6F6B
:1027200013F0020F39D1FDF77DFF401B0228F5D9C8
:10273000032061E13E4A136823F0F803216943EA6C
:10274000C1031360DBE73C4B00221A60FDF76AFF10
:102750000546374B1B6813F0020FD0D0FDF762FF20
:10276000401B0228F5D9032046E14FF4B8713148E7
:1027700008F0E0FFCAE7314B00221A60FDF752FF74
:1027800005462B4B5B6F13F0020F06D0FDF74AFF97
:10279000401B0228F5D903202EE1236813F0040F13
:1027A00000F08780A368012B01D9052B38D1204B7D
:1027B0001B6C13F0805F39D1002301931C4B1A6C02
:1027C00042F080521A641B6C03F080530193019B0A
:1027D00001251B4B1B6813F4807F33D0A368012BAA
:1027E00044D0052B48D0124B1A6F22F001021A6711
:1027F0001A6F22F004021A67A368002B46D0FDF777
:1028000011FF06460A4B1B6F13F0020F4FD1FDF765
:1028100009FF801B41F288339842F3D90320EBE093
:102820004FF4CE71034808F085FFC0E70025D0E7DC
:1028300000380240D4CE000800004742800E4742D4
:10284000007000406E4A136843F480731360FDF714
:10285000E9FE06466A4B1B6813F4807FBED1FDF784
:10286000E1FE801B0228F5D90320C5E0654A136FFD
:1028700043F001031367BFE7624B1A6F42F0040293
:102880001A671A6F42F001021A67B5E7FDF7CAFE30
:1028900006465C4B1B6F13F0020F08D0FDF7C2FE1B
:1028A000801B41F288339842F3D90320A4E0002D25
:1028B0003BD1A369022B3ED8A369002B00F09B807B
:1028C000504A926802F00C02082A00F09780022B0E
:1028D00079D1E36913B1B3F5800F32D1236A3F2B6D
:1028E00035D8636A323BB3F5BF7F36D8A36A022B73
:1028F00005D0042B03D0062B01D0082B33D1E36A7B
:10290000023B0D2B35D8404B00221A60FDF78AFEA2
:1029100005463C4B1B6813F0007F30D0FDF782FE6C
:10292000401B0228F5D9032066E0364A136C23F0D9
:1029300080531364BDE740F2DF11344808F0FAFE1B
:10294000BAE74FF4F471314808F0F4FEC6E740F2FC
:10295000E9112E4808F0EEFEC3E74FF4F5712B485D
:1029600008F0E8FEC2E740F2EB11284808F0E2FE6A
:10297000C5E74FF4F671254808F0DCFEC3E7E369CC
:10298000226A1343626A43EA8213A26A5208013A36
:1029900043EA0243E26A43EA02631A4A53601A4B6B
:1029A00001221A60FDF73EFE0446164B1B6813F029
:1029B000007F06D1FDF736FE001B0228F5D9032063
:1029C0001AE0002018E0104B00221A60FDF72AFEE2
:1029D00004460C4B1B6813F0007F06D0FDF722FE67
:1029E000001B0228F5D9032006E0002004E00120A6
:1029F0007047012000E0002002B070BD0120FBE71D
:102A0000007000400038024060004742D4CE000809
:102A1000324B9B6803F00C03042B5CD0082B01D0D5
:102A20002F4870472DE9F04B2C4B5A6802F03F02BB
:102A30005B6813F4800F2BD0284B5B68C3F38813BB
:102A40001E4600275C010025E41A65EB0705A90175
:102A500041EA9461A001001B61EB0501CB0043EA50
:102A60005073C400A01943EB07014B0243EAD05353
:102A70004402204619460023FDF7BAFB174B5B685A
:102A8000C3F3014301335B00B0FBF3F0BDE8F08B0F
:102A9000124B5B68C3F388131E4600275C010025B8
:102AA000E41A65EB0705A90141EA9461A001001B46
:102AB00061EB0501CB0043EA5073C400A01943EB5E
:102AC00007018B0243EA90538402204619460023F3
:102AD000FDF78EFBD2E70348704700BF0038024085
:102AE0000024F40000127A00002800F0F98070B58C
:102AF00004460D460368013B0E2B11D80F2D15D847
:102B0000794B1B6803F00F03AB4215D2EBB2764A48
:102B10001370136803F00F03AB420DD0012070BD9A
:102B20004FF41471714808F005FEE7E740F25121B7
:102B30006E4808F0FFFDE3E7236813F0020F29D089
:102B400013F0040F04D06A4A936843F4E05393608F
:102B5000236813F0080F04D0654A936843F4604378
:102B60009360A3687BB1802B0DD0902B0BD0A02B52
:102B700009D0B02B07D0C02B05D0D02B03D0E02B31
:102B800001D0F02B33D15A4A936823F0F003A168A7
:102B90000B439360236813F0010F42D06368032B4B
:102BA0002BD86368012B2ED09A1E012A32D9504AA5
:102BB000126812F0020F00F095804D498A6822F0E9
:102BC000030213438B60FDF72DFD0646484B9B68BF
:102BD00003F00C036268B3EB820F22D0FDF722FDF5
:102BE000801B41F288339842F0D9032097E74FF4D5
:102BF0001D713E4808F09EFDC5E740F27B213B4831
:102C000008F098FDCDE73A4A126812F4003FD4D19B
:102C1000012084E7364A126812F0007FCDD10120EE
:102C20007DE7314B1B6803F00F03AB4209D9EAB2D1
:102C30002D4B1A701B6803F00F03AB4201D001202B
:102C40006DE7236813F0040F14D0E3685BB1B3F5AC
:102C5000805F08D0B3F5A05F05D0B3F5C05F02D0A8
:102C6000B3F5E05F30D1224A936823F4E053E16882
:102C70000B439360236813F0080F15D023695BB1F1
:102C8000B3F5805F08D0B3F5A05F05D0B3F5C05FA2
:102C900002D0B3F5E05F1DD1154A936823F4604379
:102CA000216943EAC1039360FFF7B2FE104B9B68B2
:102CB000C3F303130F4AD35CD8400F4B18600020B6
:102CC000FDF766FC00202AE740F2B921074808F02A
:102CD00031FDC8E74FF43071044808F02BFDDBE705
:102CE0000120704701201AE7003C0240D4CE0008C2
:102CF0000038024094CD000814000020014B1868F1
:102D0000704700BF1400002008B5FFF7F7FF044B21
:102D10009B68C3F38223034AD35CD84008BD00BF3D
:102D200000380240A4CD000808B5FFF7E7FF044BC8
:102D30009B68C3F34233034AD35CD84008BD00BF4D
:102D400000380240A4CD000870B4036A23F00103E8
:102D50000362036A4268846924F073040D6845EADB
:102D6000040623F002048B6823430C4DA84202D0D2
:102D70000B4CA0420BD123F00803CD682B4323F06A
:102D8000040322F440724D6915438A692A43426064
:102D900086614A684263036270BC7047000001406C
:102DA0000004014030B4046A24F010040462846911
:102DB000056A24F4407444EA022222F470421B03A0
:102DC0009BB21A4325F0A005090101F0A001294397
:102DD0008261016230BC704730B4046A24F48074AC
:102DE0000462C469056A24F00304224322F0F0025D
:102DF0001B01DBB21A4325F42065090201F42061AE
:102E00002943C261016230BC704730B4046A24F4C3
:102E100080540462C469056A24F4407444EA0222BE
:102E200022F470421B039BB21A4325F42045090388
:102E300001F420412943C261016230BC70470000A7
:102E40002DE9F04104460E46036A23F480730362C1
:102E5000056A4768C36923F073080B6843EA0808EA
:102E600025F400758B6845EA03251F4B984203D073
:102E700003F5806398421CD1F3680BB1082B20D175
:102E8000B369B3F5007F00D00BBB7369B3F5807FE6
:102E900000D013BB25F40065F36845EA032525F44B
:102EA000806527F44057736947EA0317B36947EA17
:102EB00003176760C4F81C807368E3632562BDE88C
:102EC000F08141F21731094808F034FCD8E741F2AB
:102ED0001831064808F02EFCD7E741F219310348B3
:102EE00008F028FCD6E700BF000001400CCF000826
:102EF0002DE9F04104460F46036A23F48053036230
:102F0000056AD0F80480C66926F4E6460B6846EAEE
:102F1000032625F400558B6845EA03350F4B98428C
:102F200003D003F58063984209D17B69B3F5807FB4
:102F300000D063B928F480487B6948EA8318C4F854
:102F40000480E6617B6823642562BDE8F08141F27C
:102F50005D31034808F0EEFBECE700BF00000140E4
:102F60000CCF00087047704770477047704710B526
:102F7000044603681A6912F0020F11D0DA6812F0E1
:102F8000020F0DD06FF002021A610123037603686D
:102F90009B6913F0030F70D0FFF7E6FF0023237641
:102FA00023681A6912F0040F12D0DA6812F0040FC5
:102FB0000ED06FF004021A610223237623689B6906
:102FC00013F4407F5FD02046FFF7CEFF0023237627
:102FD00023681A6912F0080F12D0DA6812F0080F8D
:102FE0000ED06FF008021A61042323762368DB6990
:102FF00013F0030F4ED02046FFF7B6FF00232376D1
:1030000023681A6912F0100F12D0DA6812F0100F4C
:103010000ED06FF010021A61082323762368DB6953
:1030200013F4407F3DD02046FFF79EFF0023237618
:1030300023681A6912F0010F03D0DA6812F0010F49
:1030400036D123681A6912F0800F03D0DA6812F0C3
:10305000800F34D123681A6912F0400F03D0DA6868
:1030600012F0400F32D123681A6912F0200F03D0FA
:10307000DA6812F0200F30D110BDFFF774FF204640
:10308000FFF773FF8AE72046FFF76DFF2046FFF743
:103090006CFF9BE72046FFF766FF2046FFF765FFC2
:1030A000ACE72046FFF75FFF2046FFF75EFFBDE776
:1030B0006FF001021A612046FFF754FFC1E76FF07D
:1030C00080021A61204600F0B8FCC3E76FF04002AE
:1030D0001A612046FFF74AFFC5E76FF020021A6128
:1030E000204600F0A9FCC7E703682E4A904212D0A0
:1030F000B0F1804F0FD0A2F57C4290420BD002F588
:103100008062904207D002F58062904203D002F5BF
:103110007842904203D123F070034A681343214A56
:1031200090422AD0B0F1804F27D0A2F57C42904245
:1031300023D002F5806290421FD002F58062904257
:103140001BD002F57842904217D002F5705290429F
:1031500013D002F5806290420FD002F58062904257
:103160000BD0A2F59832904207D002F580629042CF
:1031700003D002F58062904203D123F44073CA6801
:10318000134303608B68C3620B688362054B9842EC
:1031900003D003F58063984201D10B6903630123D7
:1031A0004361704700000140002870D010B504460C
:1031B0000368384A934237D0B3F1804F34D0A2F538
:1031C0007C42934230D002F5806293422CD002F5CB
:1031D0008062934228D002F58062934224D002F5A7
:1031E0008062934220D002F5704293421CD002F5D7
:1031F0007052934218D002F58062934214D002F5C7
:103200008062934210D0A2F5983293420CD002F51E
:103210008062934208D002F58062934204D040F26B
:10322000F1311D4808F086FAA3683BB1102B05D098
:10323000202B03D0402B01D0602B16D123692BB15A
:10324000B3F5807F02D0B3F5007F14D194F8393004
:10325000BBB1022384F83930211D2068FFF744FFF9
:10326000012384F83930002010BD40F2F2310A48C1
:1032700008F060FAE2E740F2F331074808F05AFA42
:10328000E4E784F83830204608F044FCE1E7012008
:10329000704700BF000001400CCF0008002870D02C
:1032A00010B504460368384A934237D0B3F1804FD3
:1032B00034D0A2F57C42934230D002F58062934232
:1032C0002CD002F58062934228D002F580629342AE
:1032D00024D002F58062934220D002F570429342DE
:1032E0001CD002F57052934218D002F580629342CE
:1032F00014D002F58062934210D0A2F59832934226
:103300000CD002F58062934208D002F580629342AD
:1033100004D040F2F4511D4808F00CFAA3683BB108
:10332000102B05D0202B03D0402B01D0602B16D1C1
:1033300023692BB1B3F5807F02D0B3F5007F14D1A0
:1033400094F83930BBB1022384F83930211D20684C
:10335000FFF7CAFE012384F83930002010BD40F287
:10336000F5510A4808F0E6F9E2E740F2F65107485D
:1033700008F0E0F9E4E784F83830204608F06AFB0A
:10338000E1E70120704700BF000001400CCF0008BA
:1033900070B4046A24F0010404628469056A1A4E58
:1033A000B0421FD0B0F1804F1CD0A6F57C46B04291
:1033B00018D006F58066B04214D006F58066B0429B
:1033C00010D006F57846B0420CD006F57056B042E3
:1033D00008D0A6F59436B04204D024F0030242F09F
:1033E000010202E024F00304224322F0F0021B0158
:1033F000DBB2134325F00A0201F00A011143836195
:10340000016270BC704700BF0000014070B5044607
:103410000D46164603688E4A93422FD0B3F1804F73
:103420002CD0A2F57C42934228D002F580629342D0
:1034300024D002F58062934220D002F57842934274
:103440001CD002F57052934218D002F5806293426C
:1034500014D002F58062934210D0A2F598329342C4
:103460000CD002F58062934208D002F5806293424C
:1034700004D040F6E531774808F05CF92B681BB1C1
:10348000022B01D00A2B4ED16B68013B022B50D886
:10349000AB682BB1042B03D0082B01D00C2B4ED1E1
:1034A000EB680F2B51D894F83830012B00F0CD8009
:1034B000012384F83830022384F83930002E4AD0B2
:1034C000042E5FD0082E00F093802368604A934258
:1034D00017D0B3F1804F14D0A2F57C42934210D0A4
:1034E00002F5806293420CD002F58062934208D0CC
:1034F00002F57842934204D04FF44261554808F0F7
:1035000019F9EB686A6829682068FFF77EFC226871
:10351000D36923F44063D3612268D369A96843EA7D
:103520000123D36127E040F6E6314A4808F002F96A
:10353000AAE740F6E731474808F0FCF8A8E740F66C
:10354000E831444808F0F6F8AAE740F6E931414886
:1035500008F0F0F8A7E7EB686A6829682068FFF7C9
:1035600017FF2268936923F00C0393612268936923
:10357000A9680B439361012384F83930002084F853
:10358000380070BD2368324A93421FD0B3F1804F98
:103590001CD0A2F57C42934218D002F5806293427F
:1035A00014D002F58062934210D002F57842934223
:1035B0000CD002F57052934208D0A2F59432934297
:1035C00004D04FF44061234808F0B4F8EB686A680F
:1035D00029682068FFF7E6FB2268936923F44063BB
:1035E000936122689369A96843EA01239361C2E762
:1035F0002368174A934217D0B3F1804F14D0A2F535
:103600007C42934210D002F5806293420CD002F5C6
:103610008062934208D002F57842934204D04FF47E
:1036200041610C4808F086F8EB686A6829682068F0
:10363000FFF7D2FB2268D36923F00C03D361226821
:10364000D369A9680B43D36195E7022099E700BFCE
:10365000000001400CCF00082DE9F04104460E4661
:10366000036A23F010030362056AD0F804808769B7
:1036700027F4E6470B6847EA032725F020058B6807
:1036800045EA0315134B984203D003F58063984233
:1036900012D1F3680BB1082B16D125F08005F36821
:1036A00045EA031525F0400528F44068736948EAA7
:1036B0008308B36948EA8308C4F80480A761736883
:1036C000A3632562BDE8F08141F20521024808F0BC
:1036D00031F8E2E7000001400CCF000890F83830E4
:1036E000012B00F0318170B516460D4604460123CA
:1036F00080F838303AB1042A05D0082A03D00C2AC1
:1037000001D0182A20D12B68602B01D0702B21D139
:10371000AB680BB1022B23D12B690BB1042B25D144
:10372000022384F839300C2E6DD8DFE816F025001E
:103730006C006C006C0073006C006C006C00AC00E2
:103740006C006C006C00DC0040F648417F4807F0DC
:10375000F1FFD8E740F649417C4807F0EBFFD7E797
:1037600040F64A41794807F0E5FFD5E740F64B417E
:10377000764807F0DFFFD3E72368754A93422FD0DE
:10378000B3F1804F2CD0A2F57C42934228D002F5B1
:103790008062934224D002F58062934220D002F5E9
:1037A000784293421CD002F57052934218D002F531
:1037B0008062934214D002F58062934210D0A2F549
:1037C000983293420CD002F58062934208D002F501
:1037D0008062934204D040F653415C4807F0AAFF50
:1037E00029462068FFF7B0FA2268936943F008037E
:1037F00093612268936923F00403936122689369BB
:1038000029690B439361012384F83930002084F83F
:10381000380070BD23684E4A93421FD0B3F1804FE9
:103820001CD0A2F57C42934218D002F580629342EC
:1038300014D002F58062934210D002F57842934290
:103840000CD002F57052934208D0A2F59432934204
:1038500004D040F662413D4807F06CFF29462068DD
:10386000FFF7FAFE2268936943F4006393612268CC
:10387000936923F48063936122689369296943EA19
:1038800001239361BFE72368314A934217D0B3F114
:10389000804F14D0A2F57C42934210D002F5806292
:1038A00093420CD002F58062934208D002F5784230
:1038B000934204D040F67141244807F03BFF29466B
:1038C0002068FFF7BDFA2268D36943F00803D3618B
:1038D0002268D36923F00403D3612268D36929697C
:1038E0000B43D3618FE72368194A934217D0B3F192
:1038F000804F14D0A2F57C42934210D002F5806232
:1039000093420CD002F58062934208D002F57842CF
:10391000934204D04FF448610C4807F00BFF29464E
:103920002068FFF7E5FA2268D36943F40063D361A6
:103930002268D36923F48063D3612268D36929693B
:1039400043EA0123D3615EE7022070470CCF0008F1
:103950000000014038B504460D460368344A9342DE
:103960001FD0B3F1804F1CD0A2F57C42934218D0F7
:1039700002F58062934214D002F58062934210D027
:1039800002F5806293420CD002F58062934208D027
:1039900002F57042934204D040F24A61254807F094
:1039A000C9FE2B686BB1102B0BD0202B09D0302B0C
:1039B00007D0402B05D0502B03D0602B01D0702BAB
:1039C00027D16B68802B00D04BBB94F83830012B8B
:1039D0002BD0012284F83820022384F83930216862
:1039E0004B6823F070034B6021684B6828680343E1
:1039F0004B6021688B6823F080038B6021688B68A3
:103A0000686803438B6084F83920002084F838000C
:103A100038BD40F24B61074807F08CFED1E740F219
:103A20004C61044807F086FECFE70220F0E700BFB4
:103A30000000014044CF0008704770470268D36817
:103A400023F49073D3600268536923F00103536138
:103A5000202380F83A30704790F83930DBB2212BC0
:103A60002AD18368B3F5805F16D0036A5A1C0262BC
:103A70001A7803685A60C38C013B9BB2C384EBB9CC
:103A80000268D36823F08003D3600268D36843F0F0
:103A90004003D36000207047036A1B880268C3F3A9
:103AA0000803536003691BB9036A02330362E2E748
:103AB000036A01330362DEE702207047002070478B
:103AC0002DE9F84304464268B44B9A4200F29C80C8
:103AD000E3681BB1B3F5005F40F09C80236933B10C
:103AE000B3F5806F03D0B3F5C06F40F09980636980
:103AF0004FF6F372134200D123B940F68811A8485B
:103B000007F018FE21680A6922F44052E368134363
:103B10000B612168CA6822F4164222F00C02A368E5
:103B20002069034360690343E06903431343CB60A7
:103B300021684A6922F44072A36913434B61E36927
:103B4000B3F5004F72D02368964A934200F02E815D
:103B500002F58062934200F02981FFF7D5F800EB6F
:103B6000800000EB80006568AD00B0FBF5F58E4F7E
:103B7000A7FB05356D092E01FFF7C6F800EB8000A5
:103B800000EB80006568AD00B0FBF5F9FFF7BCF80D
:103B900000EB800000EB80006568AD00B0FBF5F540
:103BA000A7FB05356D094FF0640808FB15952D013D
:103BB0003235A7FB05356D0905F0F0053544FFF7F3
:103BC000A3F800EB800000EB80006668B600B0FB55
:103BD000F6F6FFF799F800EB800000EB80006368D1
:103BE0009B00B0FBF3F0A7FB0030400908FB106816
:103BF0004FEA081808F13208A7FB0837C7F3431744
:103C000023682F449F6027E140F68511644807F040
:103C100091FD5DE740F68611614807F08BFD5DE799
:103C200040F687115E4807F085FD60E723685D4A2E
:103C300093425BD002F58062934257D0FFF764F85D
:103C400000EB800000EB800065686D00B0FBF5F5CF
:103C5000554FA7FB05356D092E01FFF755F800EB11
:103C6000800000EB800065686D00B0FBF5F9FFF7A0
:103C70004BF800EB800000EB800065686D00B0FB46
:103C8000F5F5A7FB05356D094FF0640808FB1595A0
:103C9000ED003235A7FB05356D096D0005F4F875AB
:103CA0003544FFF731F800EB800000EB80006668D8
:103CB0007600B0FBF6F6FFF727F800EB800000EB8C
:103CC000800063685B00B0FBF3F3A7FB03235B0991
:103CD00008FB13684FEAC80808F13208A7FB083749
:103CE000C7F3421723682F449F60B5E0FFF71CF825
:103CF00000EB800000EB800065686D00B0FBF5F51F
:103D0000294FA7FB05356D092E01FFF70DF800EBD4
:103D1000800000EB800065686D00B0FBF5F9FFF7EF
:103D200003F800EB800000EB800065686D00B0FBDD
:103D3000F5F5A7FB05356D094FF0640808FB1595EF
:103D4000ED003235A7FB05356D096D0005F4F875FA
:103D50003544FEF7E9FF00EB800000EB8000666869
:103D60007600B0FBF6F6FEF7DFFF00EB800000EB1D
:103D7000800063685B00B0FBF3F3A7FB03235B09E0
:103D800008FB13684FEAC80808F13208A7FB083798
:103D9000C7F3421723682F449F605DE0A037A0005F
:103DA00080CF0008001001401F85EB51FEF7BCFFDB
:103DB00000EB800000EB80006568AD00B0FBF5F51E
:103DC000264FA7FB05356D092E01FEF7ADFF00EB71
:103DD000800000EB80006568AD00B0FBF5F9FEF7F0
:103DE000A3FF00EB800000EB80006568AD00B0FB36
:103DF000F5F5A7FB05356D094FF0640808FB15952F
:103E00002D013235A7FB05356D0905F0F005354468
:103E1000FEF78AFF00EB800000EB80006668B600CA
:103E2000B0FBF6F6FEF780FF00EB800000EB8000B1
:103E300063689B00B0FBF3F0A7FB0030400908FB70
:103E400010684FEA081808F13208A7FB0837C7F3D3
:103E5000431723682F449F60BDE8F8831F85EB510B
:103E6000002800F0938010B504468369002B55D0DC
:103E70000368474A934210D0A2F54C4293420CD0BB
:103E800002F58062934208D002F54C42934204D07E
:103E90004FF480713F4807F04DFCA36943B1B3F57F
:103EA000807F05D0B3F5007F02D0B3F5407F2FD1DE
:103EB000A36813B1B3F5805F56D1E36913B1B3F5CD
:103EC000004F57D194F83930002B59D0242384F86F
:103ED00039302268D36823F40053D3602046FFF7BB
:103EE000EFFD2268136923F490431361226853693C
:103EF00023F02A0353612268D36843F40053D3604C
:103F00000020E063202384F8393084F83A3010BD73
:103F100040F201111F4807F00DFCC9E703681C4A75
:103F20009342C5D0A2F54C429342C1D002F58062C3
:103F30009342BDD002F580629342B9D002F580620F
:103F40009342B5D002F544429342B1D0A2F51C424F
:103F50009342ADD002F580629342A9D040F20511A0
:103F60000C4807F0E7FBA3E740F20711094807F008
:103F7000E1FBA2E74FF48471064807F0DBFBA1E701
:103F800084F83830204607F067FE9FE7012070472D
:103F90000010014080CF0008704708B50168CB6869
:103FA00023F04003CB60202380F83930FFF7F4FF83
:103FB000002008BD704708B590F83A30DBB2222BDC
:103FC00040D18368B3F5805F0ED0036903BB0368FB
:103FD0005A68836A591C81621A70C38D013B9BB277
:103FE000C385F3B100202EE0826A036943B90368F8
:103FF0005B68C3F308031380836A02338362ECE7D0
:1040000003685B68DBB21380836A01338362E4E791
:1040100003685B68826A511C816203F07F0313703E
:10402000DBE70268D36823F49073D36002685369B6
:1040300023F001035361202380F83A30FFF7BAFFE1
:10404000002000E0022008BD7047000010B50446C3
:1040500002681368D168526913F00F0005D113F09C
:10406000200F02D011F0200F53D1002867D012F09A
:10407000010202D111F4907F61D013F0010F06D03C
:1040800011F4807F03D0E06B40F00100E06313F097
:10409000040F04D01AB1E06B40F00200E06313F0AB
:1040A000020F04D01AB1E06B40F00400E06313F09B
:1040B000080F04D01AB1E26B42F00802E263E26B2F
:1040C000002A48D013F0200F02D011F0200F24D185
:1040D00023685B6903F04003E26B12F0080F00D124
:1040E0003BB32046FFF7AAFC23685A6912F0400F41
:1040F0001BD05A6922F040025A61636B8BB11A4A95
:104100001A65606BFCF75BFB28B3606B036D984727
:1041100021E02046FFF74FFF1DE02046FFF74BFF51
:10412000D6E72046FFF790FF15E02046FFF78CFF0B
:1041300011E02046FFF788FF0023E3630BE013F054
:10414000800F02D011F0800F06D113F0400F02D083
:1041500011F0400F04D110BD2046FFF77DFCFAE7B7
:104160002046FFF71AFFF6E76D41000808B5806B9F
:104170000023C385C384FFF767FF08BD40BA80B240
:104180007047030203F47F0343EA0063020A02F468
:104190007F42134343EA1060704708B500F078F897
:1041A00000F04AFA00F09DFA03F09CFE00F08CFF4C
:1041B00003F024FE08BD000010B504462D4B1B681B
:1041C000834231D82B4B5B68A34235D92379002B2E
:1041D0003AD12388B3F5C86F3ED8264B1B68218897
:1041E0005A1894420FD0107968B92248406890421A
:1041F00009D020488068904236D05A5A2280E01A6E
:104200005A5A1A44508061885A1894420BD0107937
:1042100048B918488068A04229D020885852D21A3C
:1042200021880B445A8010BD134B40F25D12134994
:10423000134807F0B3FDC5E70F4B4FF4AF721149B8
:104240000F4807F0ABFDC1E70B4B40F25F120E4980
:104250000B4807F0A3FDBCE7074B4FF4B1720B49C5
:10426000074807F09BFDB8E7024A9460C5E701489C
:104270008260D2E798000020BCCF0008ECCF000895
:1042800004D000082CD0000848D0000864D00008F2
:1042900010B40B4B23F003030A4A13604FF4C860B9
:1042A00018800021598019711918516001240C716E
:1042B000A3F84006488093605DF8044B704700BF48
:1042C0005F0200209800002000283DD038B5044649
:1042D00010F0030F28D11D4B1B68A34203D81B4BC2
:1042E0005B68A34206D81A4B40F2AF1219491A482C
:1042F00007F054FD154B1B68A34214D8134B5B68A1
:10430000A34210D9A4F1080514F8043CA3B100237A
:1043100004F8043C0D4B9B68AB4201D90B4B9D60EC
:104320002846FFF749FF38BD094B4FF4D6720B49B9
:10433000094807F033FDCEE7054B4FF4E07208491A
:10434000054807F02BFDE2E7704700BF980000200A
:10435000BCCF0008B4D0000804D0000890D00008FA
:10436000CCD00008F8B50546CC1CA4B224F0030458
:10437000A4B20B2C04D9B4F5C86F02D9002543E0D0
:104380000C24384B1B68AB4203D8364B5B68AB42FE
:1043900006D8354B4FF4FA723449354807F0FEFC25
:1043A000304B1B68AB422FD82E4A5268AA422BD9F9
:1043B000A5F10807FF1ABFB235F8086CF61BB6B2B4
:1043C000083EB6B2B44221D8B44249D81CD0254BDD
:1043D0001A6835F8083CD118087918BBD05AE31987
:1043E0009BB208339BB21F4CA4688C4216D0D118E4
:1043F00000240C71D0524F8025F8083CD15AB1F5F9
:10440000C86F01D00A4453802846F8BD164B40F2CD
:1044100006221849164807F0C1FCD5E7D118114CFF
:10442000A160E4E704F11403B342EDD8E3199BB2B1
:1044300008339BB2D1180B488068884201D90948DB
:1044400081600020087135F8080CD0524F8025F8A3
:10445000083CD15AB1F5C86FD6D00A445380D3E78F
:104460000025D1E798000020BCCF0008E0D000086C
:1044700004D00008F8D00008002800F0838002462D
:10448000033292B222F0030292B20B2A04D9B2F59F
:10449000C86F02D9002070470C22F8B53A4B1E684D
:1044A0009B689B1B9BB244E001232371364B9B68A6
:1044B000A34210D025440835334B5B689D421FD87A
:1044C00014F0030524D15DBB04F1080059E02E4A25
:1044D00012681B8813441A791AB12B49496899420A
:1044E000F5D129498B6049689942E3D0002AE1D08F
:1044F000264B40F2CF222649264807F04FFCD9E749
:10450000224B4FF435722449224807F047FCD7E785
:104510001E4B40F2D62221491E4807F03FFCD2E74D
:104520001A4B4FF436721E491A4807F037FCCBE796
:1045300023881F461546C2F5C860834220D2F4186E
:1045400020790028F4D1F15AC91B0839A942EFD3C8
:1045500005F114008142A7D31A4492B2083292B2F4
:10456000B118002008712088B0524B8022800123AE
:104570002371B35AB3F5C86F98D01E44728095E783
:104580000020F8BD0020704798000020BCCF000834
:1045900018D1000804D0000834D1000864D1000804
:1045A00094D1000810B583681C6874B122681A6041
:1045B00014F0030F01D1204610BD054B40F2491203
:1045C0000449054807F0EAFBF5E70024F3E700BFDC
:1045D000B8D10008E8D1000804D0000838B5054675
:1045E0000C4611F0030F05D1AB681B682360AB6864
:1045F0001C6038BD034B40F29D120349034807F08D
:10460000CDFBF1E7B8D100080CD2000804D00008B7
:10461000836800221A604368033323F0030307E032
:1046200081680968196081680B6001880B44013258
:1046300041889142F4DC704710B5002406E0054B38
:1046400053F82400FFF7E4FF0134A4B2082CF6D994
:1046500010BD00BF6CCC000808B5082805D8074B72
:1046600053F82000FFF79EFF08BD054B40F287126C
:104670000449054807F092FB0020F5E76CCC0008E0
:10468000B8D1000840D2000804D0000808B50828B6
:1046900006D821B1064B53F82000FFF79FFF08BD55
:1046A000044B40F2DB120449044807F077FBF6E7BD
:1046B0006CCC0008B8D1000860D2000804D0000813
:1046C00011F0010F0CD008B5436823B190F82F30DA
:1046D00013F0080F00D108BD011D05F0A3FAFAE799
:1046E0007047704770B582B00D46C1B10A6801923B
:1046F00042680199914210D00446061D01A9304636
:1047000001F0C8FA01A9304603F0AEFD5DB12B6897
:10471000636001212046FFF7D3FF02B070BD034A5A
:1047200012680192E4E70023F2E700BF80CD0008A1
:1047300011B10B68C36070470023FBE711B10B6830
:10474000836070470023FBE7F8B5044617461E4612
:104750000D4609B10B6863B929462046FFF7C2FF31
:1047600039462046FFF7EAFF31462046FFF7E0FFD3
:10477000F8BD1146FFF7E2FF31462046FFF7D8FFAC
:1047800029462046FFF7AEFFF2E700002DE9F04191
:1047900004460E4617469846079D1DB300236360E6
:1047A000A360E36084F82F302362032384F824306D
:1047B000069BE361104A1378591C117084F832305B
:1047C000089B236143463A4631462046FFF7BCFF2B
:1047D0002046A84768B9094B1A6822601C60204629
:1047E000BDE8F081064BFB220649074807F0D6FAE0
:1047F000D4E70020F4E700BFC80000208437002081
:104800007CD20008B0D2000804D00008014B186028
:10481000704700BF8837002008B590F82F3013F09C
:10482000010F06D143F0010380F82F3013F0040F7D
:1048300000D108BD0321FFF743FFFAE708B590F860
:104840002F3013F0010F06D003F0FE0380F82F3055
:1048500013F0080F00D108BD05F064F9FBE7000074
:10486000014B01221A7070478C37002070B50C463E
:1048700016460546C0B1002C4ED0002D4ED0002C5F
:104880001ADBA2B22B7B69682BB3032B23D0013B2D
:104890009BB2012B37D8002C2FDB002C40DD002EE3
:1048A00040D0091B69601CE01F4B40F23F221F49AA
:1048B0001F4807F073FADEE7A2B2524292B26B8948
:1048C0009342DFD2184B40F247221A49184807F0AA
:1048D00065FA012021E00B1B6B6005F11002934289
:1048E00008D3A4B26B8923446B812B891C442C818F
:1048F000002012E0696001200FE06B899342CCD365
:10490000091B6960EDE7084B40F277220A49084825
:1049100007F044FA012000E0002070BD0020FCE711
:104920000120FAE70120F8E7C8D20008F0E5000806
:1049300004D00008F8D2000818D3000870B5049C11
:1049400004280AD8DFE800F01214030507000E203F
:104950000FE000200DE000200BE0134B40F2C512E9
:104960001249134807F01AFA002017E0362000E039
:104970002220033020F003000E18BDF81450AE4280
:1049800010D800251D6054B120445860022058738F
:10499000198159811A730122DA81184670BD0020ED
:1049A0005860F3E70020F9E7C8D2000828D30008D0
:1049B00004D0000808B50022FFF758FF08BD08B56D
:1049C0000122FFF753FF08BD70B528B10446037BF1
:1049D000032B0BD800251FE0274B40F2D22227499A
:1049E000274807F0DBF90025284670BD224B40F22E
:1049F000DE222449224807F0D1F9EBE71E4B40F2B2
:104A0000EB2221491E4807F0C9F90AE02369204634
:104A100098470135EDB23446002CE5D0E389002BF0
:104A2000ECD0E389013B9BB2E381002BDCD126680B
:104A3000237B627B12F0020F0AD02369002BE5D1A1
:104A40000D4B40F2F92211490D4807F0A7F9DDE7B7
:104A5000032B07D0013B9BB2012B08D92046FFF75F
:104A600033FCD6E721460820FFF710FED1E72146A8
:104A70000720FFF70BFECCE7C8D20008F0E50008DE
:104A800004D000084CD3000864D300087CD300088D
:104A90002DE9F8430E46174604280AD8DFE800F04F
:104AA0001214030507000E240FE000240DE000247B
:104AB0000BE0644B4FF48B726349644807F06EF966
:104AC0000025B1E0362400E02224032F00F2AF805D
:104AD000DFE807F07B9B9B020820FFF7BDFD054642
:104AE000F8B107730023036004F110030344033398
:104AF00023F0030343600681E21C22F00302C2F5A7
:104B00001472B24228BF324692B24281134400F579
:104B10001878434508D80123EB816B89F61AA9461A
:104B20002DE0FFF79DFE7FE0464B4FF49872484919
:104B3000464807F033F9EEE7FFF792FE2846FFF705
:104B400043FF254670E03F4B4FF4A67241493F4872
:104B500007F024F925E03B4B4FF4A9723E493B484E
:104B600007F01CF92BE0374B40F255123849374813
:104B700007F014F90123E3816389F61AA146002E98
:104B80004EDD0820FFF768FD04460028D4D00773E7
:104B9000002343730360C9F800004FF6FE739E4282
:104BA000D1DCB3B22381B3F5147F28BF4FF4147363
:104BB000638104F11003636013F0030FCBD16B68C2
:104BC0006A8913449845D5D2CDE704F1130020F04B
:104BD000030083B2F21C90B220F00300184480B2AC
:104BE00022F0030290422BD3FFF746FC0546D8B1D2
:104BF00004F110030344033323F0030343600681ED
:104C000046810023036007730AE00720FFF724FDB5
:104C1000054648B10023436006814681036007735F
:104C20000123EB8100236B732846BDE8F883054B15
:104C30004FF4C6720949054807F0B0F80025F3E7BC
:104C40000025F1E7C8D20008A0D3000804D000086E
:104C5000BCD3000824D4000838D4000868D4000865
:104C60002DE9F0410E46044670B1237B032B04D09E
:104C7000012B02D00BB1022B0ED12789B74243D9A9
:104C8000A6EB0708354616E02A4B40F2F3122A49F4
:104C90002A4807F083F8E8E7264B40F2F712284944
:104CA000264807F07BF8E8E7F31B228912FA83F322
:104CB0002381246884B16389AB4215D2ED1AADB269
:104CC0004FF6FE739845EFDD1A4B40F20B221D495B
:104CD0001A4807F063F8E7E7164B40F20F221A492B
:104CE000164807F05BF8E6E7227B2AB9AB4203D00F
:104CF000637B13F0020F09D065812581206808B11C
:104D0000FFF762FE00232360BDE8F08163681B1B90
:104D100015FA83F189B22046FFF724FB04460028E8
:104D2000EAD1044B40F21D220849044807F036F846
:104D3000E2E700BFC8D2000884D4000804D000080D
:104D40009CD40008B8D40008CCD40008E4D40008EF
:104D5000002302E001339BB200680028FAD1184614
:104D60007047000070B108B5C38901339BB2C3819D
:104D700003B108BD044B40F239320449044807F03E
:104D80000DF8F6E7704700BFC8D2000800D500084C
:104D900004D0000838B510B10D46044661B9154B72
:104DA00040F24D321449154806F0F8FF19E02B89FE
:104DB00021890B44238114462268002AF7D12289D5
:104DC00063899A420ED1236833B10A4B40F25632BE
:104DD0000B490A4806F0E2FF2B89228913442381FC
:104DE000256038BD034B40F255320649034806F0B2
:104DF000D5FFE8E7C8D2000814D5000804D00008A1
:104E00007CD500084CD5000810B50C46FFF7C2FF52
:104E10002046FFF7A7FF10BD2DE9F04150B10E4627
:104E2000074639B102890B899A4203D34FF0000833
:104E300045463CE03D4B40F2BD323D493D4806F021
:104E4000ADFF6FF00F006EE05B1B9CB237E0374B9D
:104E500040F2CD323849374806F0A0FF3EE0334BF0
:104E600040F2CE323549334806F098FF39E03F68CA
:104E70000FB100253EE00EB900253BE02B4B4FF46F
:104E800076722F492B4806F089FF6FF00F004AE039
:104E90003368002B33D0254B40F2DE3229492548B8
:104EA00006F07CFF6FF005003DE0002E3AD07B89D4
:104EB000591B7489A4EB08029142C5DB94B278684F
:104EC000716822464144284406F055FF2544ADB29E
:104ED00044441FFA84F87B89AB42B8D373894345B5
:104EE000BDD37389434502D836684FF000087B89EB
:104EF000AB42BCD01EB1728933899A42C8D0002F10
:104F0000D3D07A893B899A42CFD13B68002BCCD051
:104F1000064B40F2E3320B49064806F03FFF6FF0C4
:104F2000050000E00020BDE8F08100BFC8D2000805
:104F3000C8D5000804D00008F8D5000810D600082D
:104F40002CD600083CD600082DE9F04128B10F46C8
:104F50009046054661B1002627E01A4B40F2FE322A
:104F600019491A4806F01AFF00263046BDE8F081BC
:104F7000144B40F2FF321649144806F00FFF00268A
:104F8000F3E76A89D21A94B2A04500D24446696810
:104F900022461944B81906F0EEFE2644B6B2A8EB34
:104FA00004041FFA84F800232D68B8F1000FDCD048
:104FB000002DDAD0002BE4D069899942E1D85B1A40
:104FC0009BB2F1E7C8D2000868D6000804D00008F8
:104FD00088D6000800E0C06828B1836F8B42FAD100
:104FE00000238367F7E7704738B5054620B12B7D6E
:104FF000012B08D1012415E00C4BC0220C490D48AF
:1050000006F0CCFEF3E7094BC1220B49094806F034
:10501000C5FEEFE7094B53F8243029461868FFF71F
:10502000D9FF0134032CF5D938BD00BF44D700089F
:1050300074D7000804D0000880D70008FCCC000812
:1050400038B5044640B1237D042B1AD0072B21D05C
:10505000032B09D0002512E0184B40F24D121849DD
:10506000184806F09BFEEEE7204602F041FB05469D
:1050700008B905232375B5B1B5F1FF3F17D0284610
:1050800038BD204602F034FB05460028F3D1052345
:105090002375F0E7204602F02BFB05460028EAD1F5
:1050A00009232375E7E7204602F07EFBE7E7A37EAE
:1050B00043F00803A3760025E1E700BF44D70008CA
:1050C00074D7000804D000087047000038B5456A5E
:1050D000048D2A19C16A438EB3F5866F94BFCB182D
:1050E00001F58663D31A002B02DB4485501A38BDC4
:1050F0006B1A002B03DD002242851046F7E70446B9
:105100004D1BB5F5803F02D265850020EFE7044BCB
:105110004FF442720349044806F040FEF4E700BF32
:1051200044D70008E4D7000804D0000838B5054685
:105130000C46037D012B10D0298D214489B229858D
:10514000B1F5066F11D94FF406632B852846FFF79A
:10515000BDFFB0F5067F1BDA38BD114B4FF4487226
:105160001049114806F01AFEE6E70029EED12B7D22
:10517000072B01D0092B03D14FF406632B85E5E7FC
:10518000074B40F22D320949074806F007FEDDE7DC
:10519000AB7E43F00203AB76284602F005FBDBE76B
:1051A00044D7000800D8000804D0000828D8000818
:1051B00050B110B50446406808B1FFF705FC214620
:1051C0000320FFF763FA10BD704738B110B50468CB
:1051D000FFF7EEFF2046002CF9D110BD704738B51F
:1051E00005460320FFF738FA044650B1286869687D
:1051F000AA68EB6820606160A260E3606068FFF706
:10520000B1FD204638BD38B5037DE3B10A2B1AD075
:10521000012B18D00446406F18B1FFF7D5FB0023CF
:105220006367206FFFF7D1FF002525674FF6FF73F7
:105230002386A06EFFF7C9FFE06EFFF7C6FFA566E5
:10524000E566A4F8645038BD2DE9F04182B0AB4A60
:10525000136801331360AA4A137801331370A94B02
:105260001C6800266EE1A84B4FF47C72A749A84841
:1052700006F094FD6BE1A44B40F2F132A549A4483D
:1052800006F08CFD67E1A04B40F2F232A249A04843
:1052900006F084FD63E1E46854E194F84220052AB5
:1052A00040F2688101254AE0204602F0AFFC002868
:1052B00052D1002384F8943094F89530062B4DD8C1
:1052C000013384F89530002539E0B4F93010002915
:1052D00001DB01312186E16E89B3B4F93000B4F904
:1052E000401088422BDB022B0FD0B4F93C10B4F9EC
:1052F0003E3003EBE10389490C2A94BF8A1801F17F
:105300000C02127E9340A4F8403000232386B4F8A8
:105310005C30B4F84820934228BF13465B08A4F8D9
:105320004A30618E4A0092B2934201D2A4F84A20D8
:10533000A4F84810204602F0CDFB00E00125237DB3
:10534000062B0DD0227A12F0080F43D0042B14D074
:10535000072B12D000273EE00025F0E70025EEE7FE
:10536000A27E12F0100FEDD0216A644A1268521A20
:10537000282AE7D90135EDB2E4E7604B1A68236AC1
:10538000D21AD4F8901001F5242303F6B8436448E8
:10539000A0FB0303B2EB531F03D90135EDB2012784
:1053A00019E094F896305F4800FB03135C49A1FBB9
:1053B0000313B2EB531F01D800270CE0204602F084
:1053C000F9FB002839D194F89630013384F89630EF
:1053D000002700E00027206F50B1484B1A68236A6D
:1053E000D21AB4F9403003EB430359008A4226D263
:1053F000237D032B28D0092B2FD0002D36D1E56833
:10540000E37E0133DBB2E376227F9342C0F09880E3
:105410000023E376444A1370D4F88830002B6AD016
:10542000214620699847404B1B78002B7FF417AF2B
:1054300000287FD026462C4684E00027CBE7FFF7E4
:10544000C4FE00232367D3E7216A2C4A1268521A4C
:10545000282AD0D90135EDB2CDE7226A274B1B6847
:105460009B1AF02BC9D90135EDB2C6E7D4F88C50A0
:105470002046FFF7C8FE26B3224B1B68A34218D074
:10548000E368F36067BBD4F81080E7682146012029
:10549000FFF7FCF8244B00221A701DB16FF00C01CD
:1054A0004046A847204B1B78002B7FF4D8AE3C46E3
:1054B00048E0154B40F289421C49154806F06EFC45
:1054C000DEE7104B1B68A34206D00F4B40F28D4223
:1054D00017490F4806F062FCE2680A4B1A60D1E7F0
:1054E000616AE06C238B0193E38A0093231D2246BB
:1054F00002F09AFAC7E7002095E700BF983700202E
:10550000C90000209437002044D70008E4D80008E0
:1055100004D0000810D900083CD90008FCCC0008D1
:10552000D34D6210F8240100903700206CD9000898
:1055300098D90008204602F037F926462C4601E0AB
:1055400026462C4694B3237D002B3FF48CAE237D5E
:10555000012B3FF490AE237D0A2B3FF494AE627F83
:10556000344B1B789A423FF496AE6377237D022B2F
:105570003FF493AE94F842200B2A3FF6DFAE94F846
:105580009550002D3FF4A1AE013D2B4B1D442A7CCC
:1055900094F89430934202D2013384F8943094F812
:1055A00094309342BFF480AE0025C8E6234B1D68BB
:1055B00007E02A6A224B1B689B1AF02B0ED82C4658
:1055C000ED68002D32D02B7D0A2BF2D01D4B40F21E
:1055D000BD421D491D4806F0E1FBEAE72846FFF7FA
:1055E00012FEA4B1154B1B68AB4208D0EB68E36018
:1055F000EE6829460120FFF749F83546E1E7114BEF
:1056000040F2CB421249114806F0C8FBEEE70B4BC3
:105610001B68AB4206D00B4B40F2CF420D490B4802
:1056200006F0BCFBEA68054B1A60E1E702B0BDE892
:10563000F08100BFC9000020FCCC0008A437002086
:105640009837002044D70008C4D9000804D00008C7
:10565000F4D900081CDA000810B50C4603688B4228
:1056600005D04BB1DA68A24204D01346F9E7DB68F3
:10567000036001E0E268DA600023E3602046FFF7A0
:10568000C2FD237D0A2B05D0012B03D0A37E13F08E
:10569000010F21D1237D012B1AD0A36E33B1124B00
:1056A00040F253721149124806F078FBE36E33B1B1
:1056B0000D4B40F254720F490D4806F06FFB236FFB
:1056C00033B1094B40F256720B49094806F066FBAC
:1056D00000232375E38210BD43F00203A376204626
:1056E00002F062F8D6E700BF44D7000844DA0008A9
:1056F00004D000085CDA000878DA000810B582B03F
:10570000044621B1037D042B0CD0072B0AD0237D46
:10571000012B72D0002B55D0022B7BD02046FFF7F7
:105720008FFC68E0636FD3B1A37E13F0100F1BD022
:10573000238B0193E38A0093231D2246616AE06C68
:1057400002F072F92046FFF75EFD384B1B68A3425A
:1057500012D0BBB1DA68A24212D01346F9E7238D0A
:10576000B3F5066FE0D1D2E7314B40F20F12314969
:10577000314806F013FBDBE7DA682C4B1A6001E0D6
:10578000E268DA600023E3602C4B01221A70237D6B
:10579000042B09D02A4B1B68A3420FD021460120BD
:1057A000FEF774FF002026E00A232375254B1A68B4
:1057B000E2601C6002F0E8FA00201CE001F0DEFD6F
:1057C000002018E0E38A8BB11F4B1B68A34205D071
:1057D00053B1DA68A24205D01346F9E7DA681A4BEA
:1057E0001A6001E0E268DA600023E36021460120EC
:1057F000FEF74CFF002002B010BD2046FFF7F4FB7F
:1058000021461248FFF728FF21460220FEF73EFFFF
:105810000020F0E721460548FFF71EFF0120074B57
:1058200018702146FEF732FF0020E4E7943700208D
:1058300044D7000890DA000804D000089037002010
:10584000A8370020A4370020A03700209C37002074
:1058500008B5037D012B03D0837E43F010038376CC
:105860000121FFF74BFF08BD10B5084612B953B12F
:10587000002007E014461189FFF758FC2046FFF787
:10588000A3F8002010BDFFF7E3FFFBE7F8B50446DF
:10589000466F777B00234367D0F88050DDB13246F6
:1058A00001460069A8470546EDB917F0200F20D042
:1058B000238DB3F5066F01D001332385D4F88060C2
:1058C000BEB100231A4621462069B04710F10D0FE2
:1058D0000FD105460DE00023324601461846FFF77A
:1058E000C3FF0546E0E715F10D0F02D066676FF0C4
:1058F00004052846F8BD000070B51C4A1378013332
:1059000013701B4B1C6813E043F00203A376204680
:1059100001F04AFFA37E23F00303A37613E023F0F4
:105920000803A3762046FFF78BFB10E0E5682C46C2
:10593000DCB1627F0D4B1B789A42F7D06377A37E70
:1059400013F0010FE0D1A37E13F0080FE7D1E56853
:10595000636F002BEBD0074E002333702046FFF718
:1059600095FF3378002BE2D0CBE770BDC900002053
:10597000943700209037002008B5FFF7BDFF064A96
:1059800053780133DBB2537013F0010F00D108BD1F
:10599000FFF75AFCFBE700BFC90000202DE9F047E4
:1059A00082B004460D46037D012B1AD0237D0A2BBD
:1059B0001FD0D4F84C80D4F82490D4F88C60276998
:1059C000002B41D1B4F816A0BAF1000F46D02A4BF3
:1059D0001B68A34216D0DBB1DA68A24216D0134688
:1059E000F9E7264B4FF4F0722549264806F0D6F920
:1059F000DCE721462448FFF72FFE21460120FEF771
:105A000045FE1EE0DA681C4B1A6001E0E268DA60CD
:105A10000025E560AA46E06E08B1FFF7D6FBA06E50
:105A200008B1FFF7D2FB206F08B1FFF7CEFBBDB97D
:105A300021460120FEF72AFE1EB16FF00C01384608
:105A4000B04702B0BDE8F087B4F816A021460F4871
:105A5000FFF702FE0E4B01221A70DCE70025DAE7A1
:105A6000238B0193CDF800A0231D224649464046D2
:105A700001F0DAFFDCE700BFA037002044D70008C0
:105A8000ACDA000804D00008A437002094370020C6
:105A90009037002008B50121FFF780FF08BD000006
:105AA00010B50A4B1B680024204600E0DB6843B1B8
:105AB000196A074A1268521AA242F7D314461846C6
:105AC000F4E708B1FFF7E6FF10BD00BFA4370020E0
:105AD0009837002070B5024610F0800F00D07F226A
